:020000040800F2
:10000000D0BA0020310300089D9F0008156C00083D
:100010002D9A0008071900082DE9000800000000CB
:100020000000000000000000000000007102000855
:10003000F52D000800000000CD0200089DB1000869
:100040004B0300084B0300084B0300084B03000858
:100050004B0300084B030008F72D00084B03000872
:100060004B030008012E00080B2E00084B0300086C
:100070004B0300084B0300084B0300084B03000828
:100080004B0300084B0300084B0300082D19000820
:100090000D1900081D1900084B030008152E000853
:1000A0004B0300084B0300084B0300084B030008F8
:1000B0004B0300084B0300084B0300084B030008E8
:1000C0004B0300084B0300084B0300084B030008D8
:1000D0004B0300084B0300084B0300082DBE00082B
:1000E0004B0300084B0300084B0300084B030008B8
:1000F0004B0300084B0300084B0300084B030008A8
:100100004B0300084B0300084B0300084B03000897
:100110004B0300084B0300084B0300084B03000887
:100120004B0300084B0300084B0300084B03000877
:100130004B0300084B0300084B0300085D1900083F
:100140003D1900084D1900084B030008B9A100082B
:100150004B0300084B0300084B0300084B03000847
:100160004B0300084B0300084B0300084B03000837
:100170004B0300084B0300084B030008000000007D
:100180004B0300084B03000800F002F800F060F891
:100190000AA090E8000C82448344AAF10107DA45E2
:1001A00001D100F055F8AFF2090EBAE80F0013F0D4
:1001B000010F18BFFB1A43F001031847B02D0100CF
:1001C000D02D01000A444FF0000C10F8013B13F051
:1001D000070408BF10F8014B1D1108BF10F8015BA0
:1001E000641E05D010F8016B641E01F8016BF9D193
:1001F00013F0080F1EBF10F8014BAD1C0C1B09D1EA
:100200006D1E58BF01F801CBFAD505E014F8016B5B
:1002100001F8016B6D1EF9D59142D6D370470000ED
:100220000023002400250026103A28BF78C1FBD8FF
:10023000520728BF30C148BF0B6070471FB512F08E
:1002400024F89DE8030000F045FF1FBD10B510BD68
:1002500000F0D2FF1146FFF7F1FF0FF077FB00F03F
:10026000F0FF03B4FFF7F2FF03BC01F021F8000038
:100270002C4B19680868B0E8F04F80F30988BFF389
:100280006F8F4FF0000080F311887047000000006E
:1002900008480068006880F308884FF0000080F389
:1002A000148862B661B6BFF34F8FBFF36F8F00DF64
:1002B00000BF00BF08ED00E0DFF80C00016841F46A
:1002C00070010160704700BF88ED00E0EFF3098026
:1002D000BFF36F8F134B1A681EF0100F08BF20ED8D
:1002E000108A20E9F04F106009B44FF0500080F3FD
:1002F0001188BFF34F8FBFF36F8F10F043FD4FF0A6
:10030000000080F3118809BC19680868B0E8F04F54
:100310001EF0100F08BFB0EC108A80F30988BFF3FD
:100320006F8F704738000020EFF3058070470000A2
:100330000948804709480047FEE7FEE7FEE7FEE779
:10034000FEE7FEE7FEE7FEE7FEE7FEE704480549B5
:10035000054A064B7047000065B200088901000895
:10036000D0A20020D0BA0020D0B40020D0B4002009
:10037000DFED300AB5EEC00A60EE200ABDEEE01AED
:1003800011EE100AF1EE10FA38BF401E00EE100A0E
:100390009FED291AB8EEC00A70EEC00A20EE810A5D
:1003A000BCEEC00A10EE100A00EE100A0028B8EEEB
:1003B000C00A10EE810AB8BF002004DBB0F5807FD0
:1003C000C8BF4FF480701D4960EE000AB6EE001AF7
:1003D000DFED1C2A9FED1A2A60EE011A60EE225A08
:1003E00020EE813A20EE022A21EEA01A01EB8000D5
:1003F00073EE655A62EE202AB7EE006A33EE003AD9
:10040000D0EC043A76EE611A71EE600A35EEE20A3B
:1004100033EE413A32EEC21A70EEA10A20EE230A00
:1004200064EE831A04EE200A45EE011A31EE800ACA
:100430007047000083F9223E000080431027010826
:10044000ABAA2A3EABAAAA3EDFED300AB5EEC00A3F
:1004500060EE200ABDEEE01A11EE100AF1EE10FA7D
:1004600038BF401E00EE100A9FED291AB8EEC00AF0
:1004700070EEC00A20EE810ABCEEC00A10EE100A2F
:1004800000EE100A0028B8EEC00A10EE810AB8BFCC
:10049000002004DBB0F5807FC8BF4FF480701D4999
:1004A00060EE000AB6EE001ADFED1C2A9FED1A2A54
:1004B00060EE011A60EE225A20EE813A20EE022A06
:1004C00021EEA01A01EB800073EE655A62EE202A3D
:1004D000B7EE006A33EE003AD0EC043A76EE611AD9
:1004E00071EE600A35EEE20A33EE413A32EEC21A9C
:1004F00070EEA10A20EE230A64EE831A04EE200AAD
:1005000045EE011A31EE800A7047000083F9223E61
:1005100000008043202B0108ABAA2A3EABAAAA3ECA
:1005200070B405880E884468D1F804C05368B54299
:1005300008D140884988884201BF11888D4251887E
:10054000884203D070BC6FF00200704705FB00F1D9
:10055000880825D094ED001ADCED000A94ED010A1C
:10056000D4ED021A71EE200A9CED011A30EE011A48
:100570009CED020AC3ED000A83ED011AD4ED030AD3
:100580009CED031A31EE800A103470EE810A83ED7F
:10059000020A0CF1100CC3ED030A1033401ED9D12E
:1005A00001F00300B0F1004F0BD300BFB4EC010A1F
:1005B000401EFCEC010A30EE200AA3EC010AF5D142
:1005C0002BE0002829DD211F1B1FACF1040210F0D5
:1005D000010F0AD0091D121D91ED000AD2ED000A8B
:1005E0001B1D30EE200A83ED000A400815D000BF25
:1005F00091ED010AD2ED010A0831083230EE200AED
:1006000083ED010A91ED000AD2ED000A0833401E85
:1006100030EE200A83ED000AEAD170BC002070475A
:1006200001804280436070472DE9F04F87B04268F7
:1006300000924A680192B0F800E045889FEDFE0AFA
:1006400000200390AE4506D108884988884204BF3F
:100650007146864504D007B06FF00200BDE8F08F08
:1006600010465FEA010C1CBF9FEDF41AF0EE400A41
:1006700042D000BFAEEB0C01B1F1004F05D300BF7B
:10068000E0EC010A491EFBD113E0002911DD021F35
:1006900011F0010F1CBF121DC2ED000A4B1006D055
:1006A000C2ED010A08325B1EC2ED000AF8D100EB70
:1006B0008100ACF10101A0EC011AB1F1004F04D3AB
:1006C000E0EC010A491EFBD113E0002911DD021FF5
:1006D00011F0010F1CBF121DC2ED000A4B1006D015
:1006E000C2ED010A08325B1EC2ED000AF8D100EB30
:1006F0008100BCF1010CBDD14FF0000A0295002D24
:1007000008BF002000F006824FEA5E0006900EFB54
:1007100005F00590401BF0EE401A049000990AFB8A
:1007200005F001EB8004019A94ED000A02EB8000D1
:10073000012621460346F0EE610ABEF1000F5BD0B0
:10074000A4EB85021EF0010F18D002EB850292ED9A
:10075000001AB5EEC01AF1EE10FA08DDB4EEE01A98
:10076000F1EE10FA0ADD00BFF0EE410A06E0B1EE4C
:10077000411AF4EEC10AF1EE10FAF5D3DDF818C013
:10078000BCF1000F33D000BF02EB850797ED001AD4
:10079000B5EEC01AF1EE10FA05DDB4EEE01AF1EE96
:1007A00010FA09DD06E0B1EE411AF4EEC10AF1EEED
:1007B00010FA01D2F0EE410A02EBC50292ED001AE6
:1007C000B5EEC01AF1EE10FA05DDB4EEE01AF1EE66
:1007D00010FA09DD06E0B1EE411AF4EEC10AF1EEBD
:1007E00010FA01D2F0EE410ABCF1010CCCD1049A0E
:1007F00001EB850C0CEB8204F5EEC00AF1EE10FA69
:1008000000F08081B5EEC00A059AF1EE10FAA4EB73
:10081000820CD4BFB1EE401AB0EE401AB4EE601AAA
:10082000F1EE10FA5CD0AEEB0A02571E58D005FB71
:100830000AF20CEB820292ED002A00BFB0EE421ADF
:1008400005FB06F4B5EEC01A00EB8404F1EE10FAD5
:10085000D8BFB1EE411AB4EE601AF1EE10FA3CD1F5
:10086000A5EB0A06B6F1004F0BD300BF92ED000ACC
:10087000DCED000A761EE2EC010AACEC010AF5D1CF
:100880000CE0002E0ADD00BF92ED000ADCED000A4C
:10089000761EE2EC010AACEC010AF5D12A46B5F16C
:1008A000004F0AD394ED000AD0ED000A521EE4EC8A
:1008B000010AA0EC010AF5D10CE0002A0ADD00BF14
:1008C00094ED000AD0ED000A521EE4EC010AA0ECFF
:1008D000010AF5D1012003900AE0761C7F1EADD1FC
:1008E0000398012804D0B5EEC00AF1EE10FA7CD0CE
:1008F000A5EB0A0091ED000A8B4699460746B0F138
:10090000004F08D3D1ED000A401E80EE801AA1EC02
:10091000011AF7D11FE000281DDDABF1040110F032
:10092000010F06D0F0EE400A80EEA01A81ED011A08
:10093000091D78100FD000BFD1ED010A80EE801A9A
:1009400081ED011AD1ED020A80EE801A81ED021AC2
:100950000831401EF0D12846B5F1004F09D300BF41
:10096000D3ED000A401E80EE801AA3EC011AF7D1E5
:100970001FE000281DDDA9F1040110F0010F06D0D1
:10098000D1ED010A80EE801A81ED011A091D68106F
:100990000FD000BF91ED011AC1EE000AC1ED010AAE
:1009A000D1ED020A80EE801A81ED021A0831401E54
:1009B000F0D1DDE900124FF000085FEA0E067CD0AE
:1009C000D04504BF01EB870102EB850258D091EDC1
:1009D000000ADC4648463B46B7F1004F0DD300BF46
:1009E000D1ED000ABCEC011A00E08BE040EE410AB8
:1009F0005B1EE1EC010AF3D133E0002F31DD0B1F68
:100A0000ABF1040C17F0010F0CD00CF1040CF0EE5C
:100A1000400A9CED002AB0EE601A00EEC21A83ED87
:100A2000011A1B1D7C101AD0D3ED010A9CED011A8E
:100A300040EE410A04E00000000000000000803F9A
:100A4000C3ED010A0CF1080C93ED021ADCED000A6B
:100A500000EE601A83ED021A0833641EE4D101EB44
:100A600087012B46B5F1004F0BD300BFF0EC010A14
:100A700092ED001A5B1E00EE601AA2EC011AF5D18D
:100A80002FE0002B2DDDA2F1040CA9F1040013F0DE
:100A9000010F0AD0001DDCED010A90ED001A40EEB6
:100AA000410ACCED010A0CF1040C5C1017D000BF18
:100AB0009CED011AD0ED010A00E019E000EE601A89
:100AC0000830641E8CED011ADCED020A90ED001A6C
:100AD00040EE410ACCED020A0CF1080CE8D102EB21
:100AE000850201EB8A01761E08F101087FF468AFE8
:100AF00000980AF1010A001D00900298401E029021
:100B00007FF40CAE03990020012904BF07B0BDE8B3
:100B1000F08F00BFB5EEC00AF1EE10FA08BF6FF01B
:100B2000040007B0BDE8F08F2DE9F04F4468B0F83D
:100B3000009045880888B1F802C0D2F804A04FF0B0
:100B4000000B854204BF1388994507D1528894450C
:100B500004BF9FED322A4FEA950E03D06FF00200DA
:100B6000BDE8F08FD1F804000AEB8B086646002739
:100B7000B0EE420A23465FEA0E0224D090ED001A3E
:100B8000D3ED001A00EB8C00D3ED010A01EE810ACF
:100B900090ED001A00EB8C00D3ED021A00EE810AF2
:100BA00090ED001A00EB8C00D3ED030A1033521EB7
:100BB00001EE810A90ED001A120400EB8C00120C79
:100BC00000EE810ADAD115F003020BD0F3EC010A32
:100BD00090ED001A521E120400EB8C0000EE810A08
:100BE000120CF3D1781CA8EC010A87B24868721E77
:100BF000160400EB8700360CBAD10BEB0C001FFA81
:100C000080FBA9F101001FFA80F904EB8504B9F11A
:100C1000000FA7D10020BDE8F08F00000000000009
:100C200070B405880E884468D1F804C05368B54292
:100C300008D140884988884201BF11888D42518877
:100C4000884203D070BC6FF00200704705FB00F1D2
:100C5000880825D094ED001ADCED000A94ED010A15
:100C6000D4ED021A71EE600A9CED011A30EE411AC1
:100C70009CED020AC3ED000A83ED011AD4ED030ACC
:100C80009CED031A31EEC00A103470EEC10A83EDF8
:100C9000020A0CF1100CC3ED030A1033401ED9D127
:100CA00001F00300B0F1004F0BD300BFB4EC010A18
:100CB000401EFCEC010A30EE600AA3EC010AF5D1FB
:100CC0002BE0002829DD211F1B1FACF1040210F0CE
:100CD000010F0AD0091D121D91ED000AD2ED000A84
:100CE0001B1D30EE600A83ED000A400815D000BFDE
:100CF00091ED010AD2ED010A0831083230EE600AA6
:100D000083ED010A91ED000AD2ED000A0833401E7E
:100D100030EE600A83ED000AEAD170BC0020704713
:100D2000F0B4038842684488488800264D689C4691
:100D3000834205BF09888C426FF00200A7081CBFE0
:100D4000F0BC7047380005EB86011BD0B2EC010AFD
:100D5000401E0004000C81ED000A01EB8301B2EC9F
:100D6000010A81ED000A01EB8301B2EC010A81ED79
:100D7000000A01EB8301B2EC010A81ED000A01EBEC
:100D80008301E3D114F003000AD000BFB2EC010AE2
:100D9000401E0004000C81ED000A01EB8301F5D137
:100DA000701C86B2ACF101001FFA80FCBCF1000F90
:100DB000C8D1F0BC0020704770B5064600F06EF94F
:100DC000056806F10B0020F00704B4429CBF002028
:100DD00070BD2B466A68BAB11068A04210D304F106
:100DE000080188423CBF5068586007D35168101909
:100DF00041601168091B016058601460101D70BDCE
:100E000013465268002AE7D12146284600F04EF9E1
:100E10000028DED170BD53EA020C00F069802DE994
:100E2000F04B4FF00006002B1FBFB3FA83F503FA17
:100E300005F424FA05F65E4012BF1643B2FA82F5B5
:100E400002FA05F4C5F120051EBF22FA05FC44EAAA
:100E50000C04203556EA044C4FEA144418BF641CB5
:100E60004FF000084FF00009904271EB030C39D3AA
:100E7000002919BFB1FA81F701FA07F6B0FA80F735
:100E800000FA07F6C7F120071EBF20FA07FC46EA62
:100E90000C062037B6FBF4FCA7EB0507103F07F064
:100EA0001F0BCBF120060CFA0BFB2CFA06F644BF05
:100EB000B3460026202FA4BF5E464FF0000B5BEA2E
:100EC000060C08BF4FF0010B19EB0B09ABFB027CC2
:100ED00048EB0608C01B06FB02CC0BFB03CC71EBF6
:100EE0000C01C1E70B46024641464846BDE8F08B7F
:100EF00013B54FF000004FF00001AFF30080BDE8E4
:100F00001C407047032A40F2308010F0030C00F0C0
:100F1000158011F8013BBCF1020F624498BF11F833
:100F200001CB00F8013B38BF11F8013BA2F10402EC
:100F300098BF00F801CB38BF00F8013B11F0030364
:100F400000F02580083AC0F0088051F8043B083AC8
:100F500051F804CBA0E80810F5E7121D5CBF51F86A
:100F6000043B40F8043BAFF30080D20724BF11F8E4
:100F7000013B11F801CB48BF11F8012B24BF00F849
:100F8000013B00F801CB48BF00F8012B704710B5BA
:100F9000203AC0F00B80B1E81850203AA0E8185071
:100FA000B1E81850A0E81850BFF4F5AF5FEA027C32
:100FB00024BFB1E81850A0E8185044BF18C918C0A1
:100FC000BDE810405FEA827C24BF51F8043B40F842
:100FD000043B08BF7047D20728BF31F8023B48BF27
:100FE00011F8012B28BF20F8023B48BF00F8012B65
:100FF000704702F0FF0343EA032242EA024200F094
:1010000002B84FF000020429C0F0128010F0030C67
:1010100000F01B80CCF1040CBCF1020F18BF00F8EB
:10102000012BA8BF20F8022BA1EB0C0100F00DB89A
:101030005FEAC17C24BF00F8012B00F8012B48BFF8
:1010400000F8012B70474FF0000200B5134694469C
:101050009646203922BFA0E80C50A0E80C50B1F110
:101060002001BFF4F7AF090728BFA0E80C5048BF24
:101070000CC05DF804EB890028BF40F8042B08BFC2
:10108000704748BF20F8022B11F0804F18BF00F8BE
:10109000012B704770477047704700000048704749
:1010A00074A20020704770477047704738B50446F7
:1010B0000A4600206946AFF30080002808BF38BD0B
:1010C00002460099204600F075F8012038BD012045
:1010D00000F08AB8F8B5AFF30080054600200C4652
:1010E000102000BF0646A819A0420DD93246694615
:1010F0000020AFF30080070008BF00F075F80098EB
:10110000A04218BF0546C419FFF7C8FF056007468F
:10111000F01D20F007004619284600F00AF8B442F6
:1011200008BFF8BDA21B31463868BDE8F84000F0A2
:1011300041B800210160C0E90110704710207047DC
:1011400070B50446051FFFF7A9FF0068002C14BF07
:10115000446870BD002C18BFAC423CBF2046646898
:10116000F8D301680A18AA4218BF456003D12A685B
:1011700005461144016028684119A1421CBF6C60FA
:1011800070BD6168696021680844286070BD10B551
:1011900000F00CF8006810BD10B5044600F006F829
:1011A000046010BD004870476CA2002000487047E2
:1011B0006CA20020034640688C46002818BF884275
:1011C0003CBF03464068F8D318681844884207D0EB
:1011D0000CF1030020F00700001D411A521A0146CD
:1011E000081D0A60FFF7ACBF10B500F039F8BDE884
:1011F000104000F02FB870477546FFF7D3FFAE469A
:1012000005006946534620F00700854618B020B512
:10121000FFF79CF8BDE820404FF000064FF00007B4
:101220004FF000084FF0000B21F00701AC46ACE88E
:10123000C009ACE8C009ACE8C009ACE8C0098D46FB
:10124000704710B50446AFF300802046BDE810405B
:10125000FFF707B8002801D000F02AB87047000057
:1012600010B5012805D0002103A000F027F80120C7
:1012700010BD09A1F8E7000053494752544D454DB0
:101280003A204F7574206F662068656170206D6527
:101290006D6F7279000000003A2048656170206D22
:1012A000656D6F727920636F72727570746564001A
:1012B00001491820ABBEFEE72600020070B50546C6
:1012C0000C460A2000E06D1C00F011F835B12878BA
:1012D0000028F8D102E0641C00F009F814B120786D
:1012E0000028F8D1BDE870400A20AFF3008008B5AF
:1012F00069468DF800000320ABBE08BD08B500BFED
:101300004FF4FA600FF0F4FB0B4801F057FC01209A
:101310000FF0EEFB0FE010F0FBF90090064801F033
:101320004DFC05480C3880ED040A0EF06FFA0421DC
:1013300068460FF00BFCEEE7AC72002070B5054676
:101340000C4600260DB1022C00D870BDA11E064827
:101350000288284601F01EFF0646A01E2E54310AC0
:10136000601E295400BFF0E72001002010B50122C3
:101370001021024803F018FA10BD000000000240DE
:1013800010B500221021024803F00EFA10BD000033
:101390000000024010B501221146024803F004FA91
:1013A00010BD00000004024010B5002201210248D7
:1013B00003F0FAF910BD00000004024010B5044625
:1013C000FFF7DEFF922000F0A5F9062295491220D2
:1013D00000F080F9FFF7CAFF92484078000200B29F
:1013E000904909780843904908800846B0F9000000
:1013F00000EE100AB8EEC00A8C48D0ED000A20EECC
:10140000200AD4ED080A20EE200A84ED000A85485F
:10141000C078000200B28349897808438249088075
:101420000846B0F9000000EE100AB8EEC00A7F4886
:10143000D0ED000A20EE200AD4ED080A20EE200AA2
:1014400084ED010A77484079000200B275490979B4
:101450000843754908800846B0F9000000EE100AFC
:10146000B8EEC00A7148D0ED000A20EE200AD4ED93
:10147000080A20EE200A84ED020AFFF795FF0822F1
:101480006849002000F026F9FFF784FF65480078DE
:101490000F284FD166480078F0B36248C078000248
:1014A00000B26049897808435F49088094ED090AD1
:1014B0000846B0F9000000EE900AF8EEE00A5D4838
:1014C00090ED001A10EE810A84ED030A5548407928
:1014D000000200B25349097908435349088094ED4A
:1014E0000A0A0846B0F9000000EE900AF8EEE00A99
:1014F000504890ED001A10EE810A84ED040A494824
:10150000C079000200B247498979084346490880FA
:1015100094ED0B0A084600E00DE0B0F9000000EE83
:10152000900AF8EEE00A434890ED001A10EE810AA6
:1015300084ED050A44E03B48C078000200B2394916
:1015400089780843384908800846B0F9000000EE61
:10155000100AB8EEC00A3748D0ED000A20EE200A83
:1015600084ED030A2F484079000200B22D49097921
:1015700008432D4908800846B0F9000000EE100A23
:10158000B8EEC00A2B48D0ED000A20EE200A84ED08
:10159000040A2448C079000200B22249897908432C
:1015A000214908800846B0F9000000EE100AB8EEA4
:1015B000C00A2048D0ED000A20EE200A84ED050A7A
:1015C000FFF7DEFEA22000F0A5F802221549222036
:1015D00000F080F8FFF7CAFE12480078C0001149F9
:1015E000497840EA6110104908800846B0F90000C7
:1015F000B0F5806F05DB08460088A0F5006000B2FA
:1016000008800948B0F9000000EE100AF8EEC00AA0
:10161000B4EE001AB3EE070A00EE810A84ED070A61
:1016200010BD0000D2050020DA050020940500203E
:10163000A40500209805002070B504460D461C48FE
:10164000046000201B4908700DF0AAFC19490978B4
:101650000843184908700DF059FD164909780843E8
:10166000144908701DB1144800F0E6F91CE09FED24
:10167000130A114880ED090A9FED110A80ED0A0A4C
:101680009FED100A80ED0B0A9FED0F0A80ED0C0A0A
:1016900090ED0C0ADFED0D0A80EE801A80ED081A3D
:1016A0009FED0B0A80ED060A0248007870BD00002D
:1016B000DC0500209E0500207C9E002054675F37DB
:1016C00021C6C0BB167C3EBB628B1D41C3F51C41CD
:1016D0000000204270B506460C46154646F08000D4
:1016E00000F018F806E0552000F014F82070641C93
:1016F000681EC5B2002DF6D170BD70B504460D460A
:1017000044F0800000F006F8552000F003F828703F
:1017100070BD000001B582B04FF47A70012301AAB8
:1017200002A900900348006804F0A0FD9DF80400A1
:101730000EBD0000DC05002070B505460C462846AD
:10174000FFF7E8FF2046FFF7E5FF70BDD2ED020A84
:1017500092ED021AB6EE000A00EEC10AD2ED030ABB
:1017600092ED031A00EEC10AD0ED000A20EE200A25
:10177000D2ED010A92ED021A60EE810A92ED001A92
:10178000D2ED031A41EE610A90ED011A00EE810AD2
:10179000D2ED010A92ED031A60EE810A92ED001A71
:1017A000D2ED021A41EE210A90ED021A00EE810AF2
:1017B000F0EE000A20EE200A81ED000A92ED010A07
:1017C000D2ED020A20EE200AD2ED000A92ED031AB1
:1017D00000EE810AD0ED000A60EE200A92ED011AB7
:1017E000D2ED011AB6EE000A01EE610AD2ED031A3B
:1017F00092ED032AB0EE401A01EEC21AD0ED011AA2
:10180000B0EE600A01EE210AD2ED020A92ED031A4F
:1018100060EE810A92ED001AD2ED011A41EE610AE2
:1018200090ED021A00EE810AF0EE000A20EE200A86
:1018300081ED010A92ED010AD2ED030A20EE200AA1
:10184000D2ED000A92ED021A00EEC10AD0ED000AB4
:1018500020EE200AD2ED020A92ED031A60EE810A10
:1018600092ED001AD2ED011A41EE210A90ED011A13
:1018700000EE810A92ED011AD2ED011AF6EE000A8D
:1018800041EE610A92ED021AD2ED021A41EE610AAE
:1018900090ED021A00EE810AF0EE000A20EE200A16
:1018A00081ED020A70470000B0F52F7F03D10021BF
:1018B000034A117002E00121014A117070470000D3
:1018C000EA00002010B503F0C7F809F071FC07F03A
:1018D000CBFD07F041FD07F085FF08F003F807F0A6
:1018E00063FF07F0A3FF07F0F1FC07F011FD08F01C
:1018F0005BF807F0D1FFA82001F0D8F908F070F8E4
:101900000DF09CFC10BD00BFFEE7000010B50248C2
:1019100002F0A4FA10BD0000E40C002010B502484B
:1019200002F09CFA10BD0000E40C002010B5024843
:1019300002F094FA10BD0000E40C002010B502483B
:1019400002F08CFA10BD00000C0D002010B502480A
:1019500002F084FA10BD00000C0D002010B5024802
:1019600002F07CFA10BD00000C0D00200346042B91
:1019700015D007DC7BB1012B0ED0022B0DD0032B31
:1019800012D10BE0202B0BD0212B0AD0222B09D017
:10199000232B09D107E008E007E006E005E004E0BA
:1019A00003E002E001E000E000BF00BF002070475C
:1019B0000020704710B50022044905480AF05FFD79
:1019C000044903480AF04CFD002010BD448D00205E
:1019D000688200204485002070B504460D462146EB
:1019E00003480AF03DFD02480AF006FD002070BDE4
:1019F0006882002010B503460C460021084610BD41
:101A00002DE9F04104460D4600260A48D0F8BC7284
:101A1000D7F8140210B10120BDE8F0812A46214612
:101A200004480AF02CFD03480AF0DCFD0646304667
:101A3000F2E700006882002070B52DED048B88B0BD
:101A4000044600200690079001F0DEF8FE4880ED85
:101A5000000A00BF01F0D8F8FB48D0ED000A30EED4
:101A6000600AF2EE040AB4EEE00AF1EE10FA14DDB8
:101A70009FEDF60A84ED090A9FEDF50A84ED0A0A46
:101A80009FEDF40A84ED0B0A9FEDF30A84ED0C0A36
:101A90009FEDF20A84ED060A57E29FEDF10A01F08C
:101AA0006FF89FEDF00A84ED0C0A9FEDEE0A84EDCD
:101AB000090A9FEDEC0A84ED0A0A9FEDEA0A84ED1B
:101AC0000B0A002673E1FFF75BFC9220FFF722FE72
:101AD000062206A91220FFF7FDFDFFF747FC9DF83F
:101AE0001900000200B29DF8181040EA010500EE4E
:101AF000105AB8EEC00ADC48D0ED000A20EE200AE9
:101B000084ED000A9DF81B00000200B29DF81A1037
:101B100040EA010500EE105AB8EEC00AD248D0EDF6
:101B2000000A20EE200A84ED010A9DF81D00000243
:101B300000B29DF81C1040EA010500EE105AB8EE04
:101B4000C00AC948D0ED000A20EE200A84ED020A3E
:101B5000D4ED000A60EEA00A94ED011AD4ED011A4A
:101B600041EE210A94ED021AD4ED021A41EE210A47
:101B7000B0EE600A0DF0DEF9B0EE408A94ED0C0A8A
:101B800030EE080A84ED0C0AFFF70EFC082206A9C5
:101B90000020FFF79FFDFFF7FDFB9DF818000F28C1
:101BA00050D19DF81B00000200B29DF81A1040EAC7
:101BB000010500EE105AB8EEC00AAC48D0ED000A9C
:101BC00020EE200A84ED030A94ED090AD4ED030AFD
:101BD00030EE200A84ED090A9DF81D00000200B2D3
:101BE0009DF81C1040EA010500EE105AB8EEC00A3C
:101BF0009E48D0ED000A20EE200A84ED040A94ED00
:101C00000A0AD4ED040A30EE200A84ED0A0A9DF88F
:101C10001F00000200B29DF81E1040EA010500EE10
:101C2000105AB8EEC00A9148D0ED000A20EE200A02
:101C300084ED050A94ED0B0AD4ED050A30EE200A76
:101C400084ED0B0A06BBF0EE488AB0EE489A0020FD
:101C500017E004F10C0101EB800191ED000A03A9EA
:101C600001EB800181ED000A04F10C0101EB800120
:101C700091ED000A694601EB800181ED000A411CEB
:101C8000C8B20328E5DB49E0B4EEE88AF1EE10FAC9
:101C900001DDF0EE488AB4EEC98AF1EE10FA01D205
:101CA000B0EE489A002037E004F10C0101EB80010E
:101CB00091ED000A03A901EB8001D1ED000AB4EE19
:101CC000E00AF1EE10FA0ADD04F10C0101EB8001EB
:101CD00091ED000A03A901EB800181ED000A04F1F6
:101CE0000C0101EB800191ED000A694601EB8001D6
:101CF000D1ED000AB4EEE00AF1EE10FA0AD204F1D6
:101D00000C0101EB800191ED000A694601EB8001B5
:101D100081ED000A411CC8B20328C5DB38EEC90AB0
:101D2000534880ED000A002012E003A901EB800176
:101D300091ED000A694601EB8001D1ED000A30EE19
:101D4000600A4C4901EB800181ED000A411CC8B2D8
:101D50000328EADB464890ED000AF6EE000AB4EEEE
:101D6000E00AF1EE10FA1BDC424890ED000ADFEDCC
:101D7000420AB4EEE00AF1EE10FA11DC90ED010A2D
:101D8000DFED3D0AB4EEE00AF1EE10FA08DC90ED6A
:101D9000020ADFED390AB4EEE00AF1EE10FA00DDD6
:101DA0000AE09FED360A00F0EBFE701C86B2344864
:101DB00000888642FFF687AE00BFD4ED0C0A30489B
:101DC000008800EE100AB8EE400A80EE801A84ED1A
:101DD0000C1A002015E004F1240101EB8001D1ED83
:101DE000000A2749098800EE101AB8EE400A80EE72
:101DF000801A04F1240101EB800181ED001A411CDD
:101E0000C8B20328E7DBFFF7BBFAA220FFF782FC8A
:101E1000022206A92220FFF75DFCFFF7A7FA9DF832
:101E20001800C0009DF8191040EA6115B5F5806FE3
:101E300002DBA5F5006005B200EE105AF8EEC00A0C
:101E4000B4EE001A1EE00000CC05002054675F3796
:101E500021C6C0BB167C3EBB628B1D4100002042E8
:101E60000AD7A33B0000000094050020980500203D
:101E7000A0050020709E00209A99193E6F12033A27
:101E8000D0050020B3EE070A00EE810A84ED060AB1
:101E900034480088401C00B232490880324890ED36
:101EA000000AF6EE000AB4EEE00AF1EE10FA3FF78F
:101EB000D1AD94ED0C0ADFED2D0A30EE600AB0EEE4
:101EC000C00AF6EE000AB4EEE00AF1EE10FAEEDC1B
:101ED000274890ED000A5FED180AB4EEE00AF1EE33
:101EE00010FAE4DC90ED010A5FED1D0AB4EEE00AA1
:101EF000F1EE10FADBDC90ED020A5FED210AB4EEA0
:101F0000E00AF1EE10FAD2DC94ED090AB0EEC00A54
:101F1000DFED180AB4EEE00AF1EE10FAC7DC94ED3A
:101F20000A0AB0EEC00ADFED130AB4EEE00AF1EEE1
:101F300010FABCDC94ED0B0AB0EEC00ADFED0D0A1E
:101F4000B4EEE00AF1EE10FAB1DC00BF94ED0C0A39
:101F5000DFED090A80EE801A84ED081A08B0BDECA6
:101F6000048B70BDA6050020A0050020CDCC1C412F
:101F7000709E00200AD7233CC3F51C412DE9F04791
:101F80002DED028B82B082460D4616461C46DDF8CA
:101F9000309000F067FE074610F001F908EE100AD5
:101FA0001CE000F05FFE074610F0F9F800EE100AA2
:101FB00030EE480ADFED1E0AB4EEE00AF1EE10FA48
:101FC0000CDD1C48D0F8B400401C1A49C1F8B4001C
:101FD000002002B0BDEC028BBDE8F087504601F056
:101FE00022FF0028DDD000F03DFE074610F0D7F8B4
:101FF00000EE100A30EE480ABCEEC00A89ED000A75
:1020000026600020A060E0600820206101AB2A4625
:102010002146504601F00BFD40B10648D0F8B4000F
:10202000401C0449C1F8B4000020D2E70120D0E7E9
:1020300000004843B09E00201CB500BF41F2707004
:102040000EF056FD39E00FF063FB01901B49086864
:10205000C11700EB91718910A0EB810181B908F0E3
:1020600049FC174817490A680260496841601648E8
:10207000164B4FF4A872124900901548FFF77EFFE7
:1020800008F0B0FC0E4813490A6882604968C160D4
:102090000D48001D0D4B183340F25112084908310C
:1020A00000900B48FFF76AFF04480068401C034992
:1020B0000860012101A80EF049FDC4E7F0050020E9
:1020C000889F0020F6000020E8050020989F00204F
:1020D000E40C0020FE000020F0B52DED028B83B053
:1020E00006460027FE48007D042805D10EF058FA68
:1020F00003B0BDEC028BF0BDFA48B0F81300032822
:1021000003D000200DF0ABFB34E2F648B0F8150028
:10211000012803D103200EF08FFA21E0F148B0F836
:10212000150003280CD101200EF074FA02200EF0E5
:102130004BFA00200EF080FA01200EF061FA0FE059
:1021400001200EF067FA02200EF03EFA00200EF099
:1021500073FA01200EF054FA9FEDE30A86ED020AAD
:10216000E048B0F827000290DE48B0F82900DD49C9
:10217000B1F827104840DB49B1F827100840D94989
:10218000A1F82B000846B0F82900B1F82710484004
:10219000D449B1F829100840D249A1F82D00BDF862
:1021A0000810D048A0F829109FEDCF8ADFEDCE8A25
:1021B000012400E1BDF8080000EA0405B5F5807FC0
:1021C00031D012DC102D29D008DC012D46D0022D93
:1021D0003DD0042D34D0082D47D12AE0202D1ED02B
:1021E000402D1ED0802D40D11CE0B5F5805F1ED063
:1021F00009DCB5F5007F17D0B5F5806F15D0B5F5C2
:10220000006F32D112E0B5F5005F11D0B5F5804F07
:1022100003D0B5F5004F28D128E027E026E00127BC
:1022200024E023E022E021E020E01FE01EE01DE0AA
:102230001CE0B0EE000A38EEC00AF0EE408A15E06D
:10224000B0EE000A38EE800AF0EE408A0EE0B0EE02
:10225000000A38EE400AB0EE408A07E0B0EE000A0D
:1022600038EE000AB0EE408A00E000BF00BF9D4893
:10227000B0F82B0000EA0405B5F5807F38D012DCF9
:10228000102D29D008DC012D3BD0022D38D0042D93
:1022900035D0082D36D131E0202D26D0402D25D047
:1022A000802D2FD123E0B5F5805F25D009DCB5F571
:1022B000007F1ED0B5F5806F1CD0B5F5006F21D121
:1022C00019E0B5F5005F18D0B5F5804F03D0B5F52E
:1022D000004F17D117E016E003200EF075F9B1EEAC
:1022E000080A824880ED020A0DE00CE00BE00AE0EB
:1022F00009E008E007E006E005E004E003E002E0B2
:1023000001E000E000BF00BF7648B0F82D0000EA11
:102310000405B5F5807F3BD012DC102D2CD008DCF5
:10232000012D41D0022D3ED0042D3BD0082D3CD1B3
:1023300037E0202D29D0402D28D0802D35D126E022
:10234000B5F5805F2BD009DCB5F5007F21D0B5F560
:10235000806F1FD0B5F5006F27D11FE0B5F5005F86
:102360001ED0B5F5804F06D0B5F5004F1DD1022027
:102370000EF02AF91AE019E002200EF025F99FED7F
:102380005A0A5A4880ED020A10E00FE00EE00DE014
:102390000CE00BE002200EF017F907E006E005E084
:1023A00004E003E002E001E000E000BF00BF4FF600
:1023B000FF7000EA4404002C3FF7FCAE4B4880ED70
:1023C000008AC0ED018A4748C078012807D04548F7
:1023D000C078032803D04348C078022832D144484B
:1023E00090EDE10A3F48B0F9190000EE900AF8EECE
:1023F000E00A9FED401A00EEC10A3D4880EDE10A77
:10240000A0F5806090EDF40A3648B0F91B0000EEAC
:10241000900AF8EEE00A9FED371A00EEC10A36483E
:1024200080EDF40A90EDF40A2E48B0F91D0000EE9C
:10243000900AF8EEE00A9FED311A00EEC10A2E482C
:1024400080EDF40A2748C07F0190264890F82100CB
:102450009DF8041048409DF804100140214880F880
:10246000231090F821009DF8041048401D4991F870
:10247000211001401B4880F824109DF8041080F8BA
:1024800021109DF8040058B101201D4981F8A001D8
:10249000012F00D100E00020194981F8A10103E0DB
:1024A0000020174981F8A0010E4890F8230018B1C8
:1024B00001200C4981F830000A4890F82000009073
:1024C000084890F822009DF8001048409DF8001040
:1024D0000140044880F8251090F8220012E0000026
:1024E00094A00020947C002000000000A072002036
:1024F000887800200AD7A33B887400206F12833AA3
:10250000C87C00209DF8001048401B4991F822101B
:102510000140194880F826109DF8001080F822101C
:102520009DF8000070B11448C07801280AD102203B
:102530000EF066F81148407820F0800080300F4996
:10254000487005E00D48407820F080000B49487045
:10255000094890F8260060B10748C078022808D1E1
:1025600001200EF04DF80548407820F08000034926
:10257000487000BF00BFBBE5947C0020897C002030
:1025800070B5044600257E48B0F8130001280BD032
:10259000022802D003287DD102E00EF001F8E6E027
:1025A00002200DF05CF9E2E07548B0F81500012852
:1025B00078D0022802D003286ED102E00DF0F0FF9F
:1025C000D0E001200EF026F802200DF0FDFF0020E3
:1025D0000EF032F801200EF013F86948B0F80F0041
:1025E000A0F5806000EE100AB8EEC00ADFED650AC3
:1025F00020EE200A9FED641AC0EE010A94ED041A41
:10260000624890EDE10A00EEC10A80EDE10A5C4803
:10261000B0F81100A0F5806000EE100AB8EEC00A14
:10262000DFED5B0A20EE200A9FED571AC0EE010A8B
:1026300094ED041A574890EDF40A00EE810A80EDFB
:10264000F40A4F48B0F80B00A0F5806000EE100AC5
:10265000B8EEC00AF0EE000A20EE200ADFED4A0ACA
:1026600080EE201A4C4880ED001A4548B0F80D0065
:10267000A0F5806000EE100AB8EEC00AF0EE000A85
:1026800020EE200ADFED400A80EE201A424880ED5D
:10269000011A02E068E005E061E09FED400A80ED8C
:1026A000020A5FE001200DF0B5FF02200DF08CFF63
:1026B00002200DF0C1FF00200DF0A2FF3048B0F85D
:1026C0000F00A0F5806000EE100AB8EEC00ADFED42
:1026D0002D0A20EE200A9FED2C1AC0EE010A94ED7F
:1026E000041A2A4890EDE10A00EEC10A80EDE10AE1
:1026F0002348B0F81100A0F5806000EE100AB8EE93
:10270000C00ADFED230A20EE200A9FED1F1AC0EE5B
:10271000010A94ED041A1F4890EDF40A00EE810AB4
:1027200080EDF40A1648B0F80D00A0F5806000EEC8
:10273000100AB8EEC00AF0EE000A20EE200ADFED23
:10274000120A80EE201A144880ED001A9FED130A39
:1027500080ED010A9FED110A80ED020A02E00DF002
:102760001FFF00BF00BF02E00DF01AFF00BF00BF57
:102770000B48007D042801D10DF012FF70BD000050
:10278000947C002000003443000025448878002019
:102790000000484288740020A07200200000000061
:1027A00094A000200146087810381823B0FBF3F2FB
:1027B0000848805CC865032A05D908686FF30900DA
:1027C000001D886503E008686FF309008865886D5F
:1027D000704700002C230108014600208A6A8B699B
:1027E000CBB932B1012A0DD0022A03D0032A10D16D
:1027F0000EE000BFCB6A03F08073B3F1807F00D19D
:10280000012007E0CB6AB3F1C07F00D1012001E0D5
:1028100000E000BF34E08B69B3F5005F1AD132B13C
:10282000012A07D0022A03D0032A11D10AE000BFEF
:1028300001200EE0CB6A03F08073B3F1807F00D1FA
:10284000012006E0CB6AB3F1C07F00D1012000E097
:1028500000BF15E032B1012A05D0022A04D0032AB4
:102860000CD103E000BF00BF012008E0CB6A03F0F9
:102870008073B3F1807F00D1012000E000BF00BF72
:102880007047000010B512B190F8263043B95D4B87
:102890001C680C605B684B60012380F82630AFE059
:1028A000012A05D1584B1C680C605B684B60A7E09F
:1028B000036800EE103AD0F81E3000EE903AF1EEC8
:1028C000600AB4EEE00AF1EE10FA00D800E000BFB2
:1028D000436800EE103AD0F8223000EE903AF1EE64
:1028E000600AB4EEE00AF1EE10FA00D800E000BF92
:1028F000C36800EE103AD0F81A3000EE903AF1EECC
:10290000600A9FED421A60EE810AB4EEE00AF1EE31
:1029100010FA00D811E0C36800EE103AD0F81A306F
:1029200000EE903A9FED391A60EE810AB4EEE00AAB
:10293000F1EE10FA00DB00E000BF036800EE103A91
:10294000D0F81E3000EE903A80EE201ADFED300A0B
:102950009FED2F0A01EE200ABCEEC00A10EE103ADD
:102960000382436800EE103AD0F8223000EE903A2D
:1029700080EE201ADFED270A9FED260A01EE200ADD
:10298000BCEEC00A10EE103A4382C36800EE103A63
:10299000DFED1E0A80EE201AD0F81A3000EE103A51
:1029A000C1EE000A9FED1B1A9FED1A0A00EE810A84
:1029B000BCEEC00A10EE103A038303898382438978
:1029C000C382038A1B0A0B70037C4B70438AC3F3D8
:1029D00007138B70037C1B071B0E848A43EA1423A6
:1029E000CB70037D0B71C38AC3F307134B71837DD7
:1029F0001B02DBB2048B43EA14238B71037ECB7181
:102A000010BD0000030500200B05002000007A44E3
:102A1000000000470000004500211A30017310EE4D
:102A2000101A416010EE901A016011EE101A8160C8
:102A30001A3870472DE9F0472DED068B05460C46F8
:102A4000A878697840EA0126E8780001297940EA07
:102A500021176879297901F00F0140EA0128A87946
:102A60001A34A076E879E076A7F5006000EE100A47
:102A7000B8EEC00A9FED301AC0EE010AA06800EE61
:102A8000100A20EE800A10EE100AC4F81100A6F514
:102A9000004000EE100AB8EEC00A9FED281AC0EE02
:102AA000010A606800EE100A20EE800ADFED240AB9
:102AB00080EE201A11EE109A48460FF045FB41ECCB
:102AC0001A0B9FED200B53EC102B0FF055F941EC36
:102AD000190B9FED1C0B53EC102B0FF0A5F841ECDC
:102AE000180B0FF06FF8C4F80D00A8F5006000EEA9
:102AF000100AB8EEC00A9FED101AC0EE010A206855
:102B000000EE100A20EE800ADFED100A20EE200A07
:102B100010EE100AC4F8150095F800A04FEA2A102C
:102B20006076607E1A3C10B9002084F82600BDEC67
:102B3000068BBDE8F087000000000045000000475C
:102B4000DB0F4940000000000080664000007A442E
:102B500008B508484068009007490098096888420D
:102B600004D206480068401C0449086002490098E5
:102B7000086008BD001000E0C0000020BC0000207C
:102B80000C494868F0EE400A00BF0A494968091A32
:102B900001EE101AF8EE411A074991ED001AB8EE4D
:102BA000411A20EE811AF4EEC11AF1EE10FAECD3BC
:102BB00070470000001000E0B000002010B52DEDBF
:102BC000028B82B004460E4840680190206801994B
:102BD000081A00EE100AF8EE400A0A4890ED000AC2
:102BE000B8EE400A80EE801AB0EE418A019820606B
:102BF000FFF7AEFFB0EE480A02B0BDEC028B10BD8D
:102C0000001000E0B000002010B52DED028B00F0A8
:102C100081F81148D0E9022110460FF0C0FA00EE09
:102C2000100A0D48D0ED000AF8EE608ADFED0B0ABD
:102C300040EE208AD0E9042110460FF0B0FA00EEF1
:102C4000100ADFED070A40EE208AB0EE688AB0EE87
:102C5000480ABDEC028B10BD407200206F12833A0F
:102C6000BD3786352DE9F04100F054F80D48006875
:102C70000D49484300210B4A4FF47A77D2E90236D6
:102C8000A3FB072806FB078603FB01668318714137
:102C9000044AD2E904021C1841EB020520462946E9
:102CA000BDE8F0814072002040420F0012490968DF
:102CB00041F08071104A11600021104A51601146A4
:102CC000096841F0010111600D4941430D4A11604D
:102CD000114609684FF47A72B1FBF2F10A4A1160A9
:102CE00008490968064AB1FBF2F1084A116000215F
:102CF000074A116070470000FCED00E0001000E0A2
:102D000040420F00B0000020B4000020B8000020B6
:102D1000BC00002038B52D4840680090FFF718FF30
:102D20002B4800684FF0FF31A0FB01300099591883
:102D300040F10000274AC2E9001027480023254936
:102D4000026803C9FEF767F8244A03C2234806C88D
:102D5000214800680024A1FB003502FB005001FB64
:102D600004011C48D0E90020D21A60EB01001C4984
:102D7000C1E90020194800681A4908601A48002370
:102D80001749026803C9FEF746F8164AC2E902016C
:102D90001046D0E9021314480068A1FB002503FB8C
:102DA000005001FB04010E48D0E900309A1A60EB94
:102DB00001000E49C1E900200D480023026803C943
:102DC000FEF729F8074AC2E9040138BD001000E007
:102DD000BC000020C8000020B0000020D00000206F
:102DE000D800002040720020B4000020E000002045
:102DF000B8000020704710B5012001F0C7FB10BDDE
:102E000010B5082001F0C2FB10BD10B5102001F074
:102E1000BDFB10BD10B5202001F0B8FB10BDD2EDF8
:102E2000020A92ED021AB6EE000A00EEC10AD2EDD5
:102E3000030A92ED031A00EEC10AD0ED000A20EE5B
:102E4000200AD2ED010A92ED021A60EE810A92ED9B
:102E5000001AD2ED031A41EE210A90ED011A00EE9C
:102E6000810AD2ED010A92ED031A60EE810A92ED19
:102E7000001AD2ED021A41EE610A90ED021A00EE3C
:102E8000810AF0EE000A20EE200A81ED000A92EDA0
:102E9000010AD2ED020A20EE200AD2ED000A92EDDC
:102EA000031A00EEC10AD0ED000A60EE200A92ED8E
:102EB000011AD2ED011AB6EE000A01EE610AD2ED56
:102EC000031A92ED032AB0EE401A01EEC21AD0EDB9
:102ED000011AB0EE600A01EE210AD2ED020A92ED6B
:102EE000031A60EE810A92ED001AD2ED011A41EE4A
:102EF000210A90ED021A00EE810AF0EE000A20EE9F
:102F0000200A81ED010A92ED010AD2ED030A20EEBA
:102F1000200AD2ED000A92ED021A00EE810AD0EDED
:102F2000000A20EE200AD2ED020A92ED031A60EEAA
:102F3000810A92ED001AD2ED011A41EE610A90ED7C
:102F4000011A00EE810A92ED011AD2ED011AF6EE95
:102F5000000A41EE610A92ED021AD2ED021A41EE28
:102F6000610A90ED021A00EE810AF0EE000A20EEEE
:102F7000200A81ED020A704772B600BFFEE700002A
:102F800010B504469FED0A0A84ED0A0A84ED090A89
:102F900084ED030A9FED060A84ED0B0A84ED040A12
:102FA00084ED240A04F11800FFF708FE10BD0000AC
:102FB0000000000010B520220121DFED194A9FED2D
:102FC000184ADFED183A9FED173ADFED152A9FED0D
:102FD000162ADFED161A9FED121ADFED150A9FED86
:102FE000150A154807F034FC20220121DFED0C4AB8
:102FF0009FED0B4ADFED0B3A9FED0A3ADFED082A11
:103000009FED092ADFED091A9FED051ADFED080A89
:103010009FED080A0848B83007F01AFC10BD000000
:103020000000000000007A44A69B443B3333D33FAA
:1030300000C0DA4500401C46B872002010B52DEDE6
:10304000028BB0EE408AF0EE608A0D48D0ED660A41
:10305000B0EE600AF0EE480A07F095FA084880EDF5
:10306000700AD0ED6E0AB0EE600AF0EE680AB83071
:1030700007F089FA024880ED710ABDEC028B10BDA1
:10308000B872002070B52DED028B05460C46B5F9DF
:10309000000000EE100AB8EEC00ADFED160A20EEBE
:1030A000200AB0EE408AB5F9020000EE100AB8EE30
:1030B000C00AF1EE080A20EE200A84ED060ADFEDD0
:1030C0000E0AB0EE480A20460BF032FC84ED050AE9
:1030D000B5F9040000EE900AF8EEE00AB0EE600ADE
:1030E000DFED060A04F11C000CF0ACFBBDEC028B1A
:1030F00070BD0000FFFF333D0000B4433333333F66
:10310000F0B5059D012D0DD113F5804F01DC1F4C4D
:1031100006E0B3F5804F02DB4FF4804400E01C462C
:1031200023460AE01A4CA34200DC05E047F2305483
:10313000A34200DB00E01C46234640F2FF14A142FC
:1031400002D0B1F5FF7F0CD1012A1EDB042A1CDC62
:10315000561E74001E0A76B206555FB2661C87556D
:1031600013E040F2FF24A14202D0641EA1420CD120
:10317000052A0ADB072A08DC561F74001E0A76B2ED
:1031800006555FB2661C875500BFF0BD00C0FFFF4B
:10319000D08AFFFF30B5034613B94FF6FF7030BD3C
:1031A00009E013F8014B82EA0400C0B2054D35F87E
:1031B000100080EA2222081EA1F10101F1D110467F
:1031C000EDE700004C23010870B50A480468001DB3
:1031D0000568001D0668344454B10822064920469B
:1031E00005F0B8F8042204491031284605F0B2F879
:1031F00070BD0000107AFF1F7A05002010B5284826
:1032000007F0FCFA2648B83807F0F8FA254807F026
:10321000F5FA2348B830FFF7B3FE2348FFF7B0FEB6
:10322000204890EDF00A80EDF40A90EDF00A80ED70
:10323000EC0A9FED1E0A80EDEA0A9FED1C0A80ED64
:10324000EB0A9FED1A0A80EDEE0A00F5A96007F07F
:10325000D5FA174807F0D2FA1648FFF791FE15483D
:103260009830FFF78DFE12489038D0EDDF0AB0EEAF
:10327000600A00F5627008F09DF90D48903890EDF5
:10328000DF0A80EDE10A90EDDF0A80EDDC0A9FEDB8
:10329000070A80EDDA0A9FED050A80EDDB0A10BD12
:1032A000F875002088740020487700200000000096
:1032B00018790020887A002008B500BF04F0A0FE2D
:1032C00064200DF015FC08E00EF022FA009004F0E6
:1032D000F9FE012168460DF039FCF5E710B51348F9
:1032E00090EDDE0AB0EEC00AF1EE080AB4EEE00A94
:1032F000F1EE10FA0ED290EDDE0AF1EE080A80EE41
:10330000201A9FED0B0A21EE000ADFED0A0A20EEDB
:10331000200A10BD0548D0EDDE0AB0EE600A0DF0BF
:1033200095F9DFED040A20EE200AF2E78878002004
:103330000080BB440000000010B500220121DFED39
:103340003A4A9FED394ADFED383A9FED373ADFEDE3
:10335000362A9FED352AF3EE081A9FED331ADFED7A
:10336000320A9FED320A324807F072FA0522012133
:10337000DFED2D4A9FED2C4ADFED2B3A9FED2A3AE7
:10338000DFED292A9FED2B2ADFED2B1A9FED261A60
:10339000DFED2A0A9FED2A0A2548B83807F058FAC7
:1033A00000220121DFED204A9FED1F4ADFED1E3A8A
:1033B0009FED1D3ADFED1C2A9FED1B2AF3EE041A48
:1033C0009FED191ADFED180A9FED180A1D4807F046
:1033D0003FFA05220121DFED144A9FED1B4ADFED84
:1033E000123A9FED113ADFED102AB2EE0E2ADFED10
:1033F000171A9FED0D1ADFED160A9FED110A1148FD
:10340000B83807F025FADFED130A9FED110A1248CC
:1034100008F0E6F8DFED0F0A9FED100A0E4828309D
:1034200008F0DEF810BD00000000000000008C4332
:10343000F87500200000F0420000964300E02B46A3
:103440000060EA46D0790020FAEDEB3A0000B44380
:1034500000A00C460AD7233C107C002000C8AF47D0
:1034600008B500BFFFF7A6FDFFF766FF08F09CFA5E
:10347000B3EE0E1AF2EE040A9FED390A3948FFF74F
:10348000CBFADFED390AB2EE040A384807F0E0FB68
:103490004FF4FA600DF02CFB00245FE00EF038F9D9
:1034A00000903348FFF78AFB3148203880ED090A45
:1034B0000DF0F8F82F48C07807281AD2DFE800F09E
:1034C00004070A16130D100000F0A6F914E000F02E
:1034D00053F811E000F076F80EE000F0B3F90BE0DD
:1034E00000F0ECF808E000F0ABF905E000F022FA9B
:1034F00002E000F091F900BF00BF1E4840790628A5
:1035000016D2DFE800F003060C090F1207F054FD95
:1035100011E007F0BEFC0EE007F0BCFC0BE007F08A
:10352000BDFD08E007F0B4FC05E007F091FD02E006
:1035300007F042FD00BF00BF06F000FC06F0EAFC09
:10354000E11704EB91718910A4EB810109B907F02F
:1035500049FC641C012168460DF0F8FA9EE7000062
:10356000DC0F4940B87B00200000204348A0002029
:10357000D09E0020947C002010B50E48407820F0AA
:1035800018000C4948700CF095F90B48D0EDF40A7E
:10359000B0EE600A00F012F9084880ED0E0A084803
:1035A000D0EDE10AB0EE600A00F0C6F9034880ED04
:1035B000130A10BD897C00208874002008A2002016
:1035C0008878002010B53448407800F00700E8B350
:1035D0003148B0F9030000EE100AF8EEC00A9FED82
:1035E0002F1A80EE810A2E48D0EDF40A30EEC00A80
:1035F000B0EEC00ADFED2B0AB4EEE00AF1EE10FAED
:103600002DD200F58060D0EDE10A2348D0F8050006
:1036100000EE100A30EEC00AB0EEC00ADFED220A5A
:10362000B4EEE00AF1EE10FA19D22048807E0D289F
:1036300015D11948B0F9030000EE100AB8EEC00A1F
:10364000DFED160A80EE201A154800E007E080ED55
:10365000F41A1148D0F805001149C1F8840714483C
:10366000407820F01800124948700CF023F90C48FB
:10367000D0EDF40AB0EE600A00F0A0F80D4880ED3D
:103680000E0A0D48D0EDE10AB0EE600A00F054F9E0
:10369000084880ED130A10BD7E7C00200000C8425F
:1036A000887400200000704200008C4294A000202A
:1036B000897C002008A200208878002010B50DF039
:1036C00033F83649A1F10800FFF7DCFC34484078B4
:1036D00000F00700F0B33248B0F9030000EE100A22
:1036E000B8EEC00ADFED2F0A80EE201A2E4890EDCA
:1036F000F40A30EE410AB0EEC00ADFED2C0AB4EE57
:10370000E00AF1EE10FA29D200F58060D0EDE10A6E
:103710002348D0F8050000EE100A30EEC00AB0EEE3
:10372000C00ADFED230AB4EEE00AF1EE10FA15D27A
:103730001B48B0F9030000EE100AB8EEC00ADFED36
:10374000190A80EE201A184880EDF41A1448D0F8AF
:10375000050000E002E01449C1F8840715484078EC
:1037600020F018001030134948700CF0A3F80E48F0
:10377000D0EDF40AB0EE600A00F020F80E4880EDBB
:103780000E0A0648A030D0EDE10AB0EE600A00F063
:10379000D3F8094880ED130A10BD0000E877002037
:1037A0007E7C00200000C842887400200000704227
:1037B00000008C42897C002008A2002010B52DED6D
:1037C000028BB0EE408A134880EDEC8AD0EDF00A0F
:1037D000B0EE600AF0EE480A00F5B87006F0D3FECD
:1037E0000C4880EDEA0A90EDEA1AF0EE410A90EDFD
:1037F000EF1AB0EE410AB83006F0C5FEFFEE000A3F
:1038000020EE200A034880EDEB0A90EDEB0ABDECB8
:10381000028B10BD8874002010B50CF04BF8FFF738
:10382000EDFC9FED050A054880ED0E0A9FED020AAA
:1038300080ED130A10BD00000000000008A2002067
:103840007047000010B53348407800F00700E0B33F
:103850003048B0F9030000EE100AF8EEC00A9FED00
:103860002E1A80EE810A2D48D0EDF40A30EEC00AFF
:10387000B0EEC00ADFED2A0AB4EEE00AF1EE10FA6B
:1038800029D200F58060D0EDE10A2248D0F8050089
:1038900000EE100A30EEC00AB0EEC00ADFED210AD9
:1038A000B4EEE00AF1EE10FA15D21A48B0F90300AE
:1038B00000EE100AB8EEC00ADFED170A80EE201AFB
:1038C000164880EDF41A134800E004E0D0F8050033
:1038D0001249C1F884071448407820F018000830D5
:1038E000114948700BF0E6FF0C48D0EDF40AB0EE39
:1038F000600AFFF763FF0D4880ED0E0A0C48D0ED1B
:10390000E10AB0EE600A00F017F8084880ED130AEB
:1039100010BD00007E7C00200000C842887400209A
:103920000000704200008C42897C002008A2002028
:10393000887800207047000010B52DED028BB0EEA6
:10394000408AB0EE480A294807F0BEFC284880EDBE
:10395000DC0AD0EDDF0AB0EE600AF0EE480A00F5AE
:10396000A47006F010FE2148D0ED040A9FED211A44
:1039700001EE200A1E4880EDDA0AD0EDDA0AB0EE38
:10398000600A00F56C7007F09FFC194890EDDA1A98
:10399000F0EE410A90EDDE1AB0EE410A903006F0EA
:1039A000F2FDF0EE408AFFF799FC38EE800A0F48EE
:1039B0002830D0ED040A9FED101A60EE810A90EDD8
:1039C000031ADFED0E1A41EE810A9FED0D1A01EE8A
:1039D000200AFFEE000A20EE200A054880EDDB0AEF
:1039E00090EDDB0ABDEC028B10BD0000107C0020C6
:1039F000887800209A99193FCDCC8440EC519441AD
:103A00000000000010B5024692F82030012B01D0D2
:103A1000022B06D1106840690843146860610020D9
:103A200010BD506A40F4802050620120F8E7F0B5E4
:103A300004460D461E4694F8207020688368A868E6
:103A400000B900E000BF012F01D0022F7CD103F0AC
:103A5000806030B903F0006018B903F0805000288E
:103A600073D0C3F30161022905D9606A40F40000F4
:103A700060620120F0BD012088403060A86860B914
:103A8000B5F800C0E86840EA4C5C206800F5C070FA
:103A900000EB0110C0F800C00FE0D5E901C040EA1A
:103AA000CC00D5F80CC040EA0C00D4F800C00CF5EE
:103AB000C07C0CEB011CCCF80000D5F810C02068CD
:103AC00000F5C07000EB0110C0F804C0287D01288B
:103AD0000ED1206800F5C07000EB0110406840F482
:103AE000807C206800F5C07000EB0110C0F804C0B5
:103AF000D079000692F806C040EA0C4092F805C062
:103B000040EA0C2C10794CEA000C206800F5C070DB
:103B100000EB0110C0F80CC0D078000692F802C08B
:103B200040EA0C4092F801C040EA0C2092F800C034
:103B300040EA0C00D4F800C00CF5C07C0CEB011C72
:103B4000CCF80800206801E016E00FE000F5C07036
:103B500000EB0110006840F0010C206800F5C07017
:103B600000EB0110C0F800C0002083E7606A40F459
:103B70000010606201207DE7606A40F4802060628E
:103B8000012077E7F0B504460A46216894F82050F2
:103B9000012D01D0022D7ED1424901F50071086846
:103BA00040F001000860086820F47C500860086854
:103BB000566A40EA06200860107D00F01F060120CA
:103BC00000FA06F3C8699843C861A1F50071D0698D
:103BD000C8B9D1F80C029843C1F80C02908880B2A1
:103BE000968940EA064601F51070576940F837603B
:103BF000108880B2168940EA064601F510705769B0
:103C000000EBC7004660D069012819D1D1F80C0239
:103C10001843C1F80C02908880B2168840EA064624
:103C200001F51070576940F83760908980B21689A5
:103C300040EA064601F51070576900EBC700466080
:103C4000906928B9D1F804029843C1F8040204E04D
:103C5000D1F804021843C1F80402106928B9D1F858
:103C600014029843C1F8140204E0D1F81402184376
:103C7000C1F81402106A012804D1D1F81C021843BB
:103C8000C1F81C02D1F8000220F00100C1F80002C6
:103C90000020F0BDFFE7606A40F4802060620120F0
:103CA000F7E7000000640040704770B5044694F8E0
:103CB0002050012D01D0022D7CD151B92068C0685F
:103CC00000F0030080B9606A40F4001060620120D7
:103CD00070BD2068006900F0030028B9606A40F4F4
:103CE000001060620120F3E7206800F5D87000EB57
:103CF0000110006800F004009060906840B92068EE
:103D000000F5D87000EB01100068400D106007E06E
:103D1000206800F5D87000EB01100068C008506002
:103D2000206800F5D87000EB0110006800F0020078
:103D30004008D060206800F5D87000EB01104068A2
:103D400000F00F001061206800F5D87000EB011042
:103D5000406800F47F40000A9061206800F5D87048
:103D600000EB01104068000C5061206800F5D8702D
:103D700000EB011080681870206800F5D87000EB27
:103D80000110806800F47F40000A5870206800F538
:103D9000D87000EB0110806800F47F00000C987070
:103DA000206800F5D87000EB01108068000ED87014
:103DB000206800E031E000F5D87000EB0110C06829
:103DC0001871206800F5D87000EB0110C06800F48D
:103DD0007F40000A5871206800F5D87000EB011090
:103DE000C06800F47F00000C9871206800F5D8705E
:103DF00000EB0110C068000ED87131B92068C068AE
:103E000040F020002668F06005E02068006940F07E
:103E100020002668306100205AE7606A40F4802064
:103E20006062012054E70146002091F82020012A19
:103E300001D0022A11D10B689B6803F0806303B1A3
:103E4000401C0B689B6803F0006303B1401C0B68C7
:103E50009B6803F0805303B1401C70472DE9F05F6D
:103E600004460025206846692068D0F80490206840
:103E700087682068D0F80CA02068D0F810B02068BF
:103E8000D0F8188006F00100002855D007F0010096
:103E9000C0B101202168886007F0020018B12046F7
:103EA00000F0E1FA0EE007F0040010B145F40065FF
:103EB00008E007F0080010B145F4805502E0204604
:103EC00000F0D0FA07F48070C8B14FF48070216818
:103ED000886007F4007018B1204600F0C6FA0EE0C2
:103EE00007F4806010B145F4005508E007F4006065
:103EF00010B145F4804502E0204600F0B5FA07F421
:103F00008030C8B14FF480302168886007F40030F9
:103F100018B1204600F0ABFA0EE007F4802010B193
:103F200045F4004508E007F4002010B145F4803561
:103F300002E0204600F09AFA06F0080038B10AF0D4
:103F4000100020B145F4007510202168C86006F00B
:103F5000040040B10AF0080028B108202168C860B8
:103F6000204600F02DFA06F0020038B12068C06843
:103F700000F0030010B1204600F023FA06F04000E4
:103F800038B10BF0100020B145F480651020216895
:103F9000086106F0200040B10BF0080028B10820AD
:103FA00021680861204600F01CFA06F0100038B1C4
:103FB0002068006900F0030010B1204600F012FAFA
:103FC00006F4003040B109F0100028B1102021683B
:103FD0004860204600F016FA06F4803040B109F03F
:103FE000080028B1082021684860204600F040FA07
:103FF00006F4004088B309F0040078B306F480703A
:1040000020B108F0010008B145F0010506F4007088
:1040100020B108F0020008B145F0020506F4806006
:1040200020B108F0040008B145F0040506F4006072
:10403000A0B108F0700088B108F07000402817D0D7
:1040400006DC10280BD020280CD0302819D10CE029
:10405000502810D0602814D110E01DE019E045F080
:1040600008050FE045F010050CE045F0200509E0DB
:1040700045F0400506E045F0800503E045F4807515
:1040800000E000BF00BF2068806920F07000216858
:1040900088610420216848602DB1606A284360620D
:1040A0002046FFF701FEBDE8F09F70B504460CB94D
:1040B000012070BD94F8200010B9204600F0B0F83F
:1040C0002068006820F002002168086000F072FBA0
:1040D00005460DE000F06EFB401B0A2808D9606A17
:1040E00040F400306062052084F820000120E0E701
:1040F0002068406800F002000028EBD120680068CA
:1041000040F001002168086000F054FB05460DE016
:1041100000F050FB401B0A2808D9606A40F40030C8
:104120006062052084F820000120C2E72068406812
:1041300000F001000028EBD0207E012806D1206885
:10414000006840F080002168086005E02068006891
:1041500020F0800021680860607E012806D1206878
:10416000006840F040002168086005E020680068B1
:1041700020F0400021680860A07E012806D1206858
:10418000006840F020002168086005E020680068B1
:1041900020F0200021680860E07E012806D1206818
:1041A000006820F010002168086005E020680068C1
:1041B00040F0100021680860207F012806D12068A7
:1041C000006840F008002168086005E02068006889
:1041D00020F0080021680860607F012806D120686F
:1041E000006840F004002168086005E0206800686D
:1041F00020F0040021680860D4E902010843216925
:104200000843616908436168491E08432168C86121
:1042100000206062012084F82000002049E70000AF
:1042200010B586B00446142101A8FCF70CFF5E49C6
:104230002068884251D15D480068401C5B49086095
:104240000846006801280FD100BF002000905848A0
:10425000006840F00070564908600846006800F0A9
:104260000070009000BF00BF00BF002000905048C9
:104270001038006840F008004D49103908600846C1
:10428000006800F00800009000BF00BF032001900C
:104290000220029000200390032004900920059042
:1042A00001A9444800F080F900220521132000F004
:1042B00051FC132000F03EFC00220521142000F0E8
:1042C00049FC142000F036FC00220521152000F0E6
:1042D00041FC152000F02EFC64E03749206888423C
:1042E00060D100BF002000903148006840F080603D
:1042F0002F4908600846006800F08060009000BF09
:1043000000BF2A480068401C284908600846006829
:1043100001280FD100BF002000902548006840F020
:104320000070234908600846006800F000700090A3
:1043300000BF00BF00BF002000901D48103800687B
:1043400040F002001A49103908600846006800F081
:104350000200009000BF00BF602001900220029088
:1043600000200390032004900920059001A9134820
:1043700000F01AF9002205213F2000F0EBFB3F205E
:1043800000F0D8FB00220521402000F0E3FB402094
:1043900000F0D0FB00220521412000F0DBFB412092
:1043A00000F0C8FB06B010BD0064004024000020EF
:1043B00040380240000C0240006800400004024007
:1043C000704710B58AB0044601AB03AA002120460D
:1043D000FFF76BFC01AA03A9204605F029FB0AB0F0
:1043E00010BD704710B58AB0044601AB03AA012185
:1043F0002046FFF75AFC01AA03A9204605F018FB46
:104400000AB010BD704770B5044694F8200001282A
:1044100022D1022084F820002068006820F00100EA
:104420002168086000F0C6F905460DE000F0C2F909
:10443000401B0A2808D9606A40F4003060620520F9
:1044400084F82000012070BD2068406800F0010061
:104450000028EBD16062F6E7606A40F400206062F9
:104460000120F0E77047704770477047704770470A
:10447000704700002DE9F0410446002500F09AF94C
:10448000074614B90120BDE8F081606A00B100BFA1
:1044900000BF002084F8340000BF022084F83500FB
:1044A0002068006820F00100216808600AE000F040
:1044B00081F9C01B052805D920206065032084F8F8
:1044C0003500E0E72068006800F001000028EED128
:1044D0002068056821480540D4E901010843E168E6
:1044E00008432169084361690843A1690843E169F8
:1044F0000843216A08430543606A042803D1D4E9CC
:104500000B0108430543206805602068456925F0D4
:104510000705606A0543606A04280DD1A06A054357
:10452000E06A48B12046FEF757F928B1402060659F
:10453000012084F83500A6E7206845612046FEF793
:1045400031F9064694F85C103F208840B0600020A6
:104550006065012084F83500002094E73F8010F06A
:1045600070B5044600F026F906462546681C10B1D1
:1045700004480078054400BF00F01CF9801BA842E5
:10458000FAD370BD300000207047000010B504461B
:1045900004480068204020B1024804602046FFF72C
:1045A000F3FF10BD143C0140F8B502460B46002550
:1045B000002400200021DCE0012606FA01F51E6837
:1045C00006EA0504AC4273D15E68022E02D05E6832
:1045D000122E13D1CF0802F1200656F827004E07FD
:1045E000F70E0F26BE40B0434F07FF0E1E69BE40B8
:1045F0003043CF0802F1200646F8270010684F002C
:104600000326BE40B0431E7906F003064F00BE40AD
:10461000304310605E68012E08D05E68022E05D01F
:104620005E68112E02D05E68122E13D190684F0082
:104630000326BE40B0434F00DE68BE40304390606A
:10464000506801268E40B0431E79C6F300168E4096
:1046500030435060D0684F000326BE40B0434F0047
:104660009E68BE403043D0605E6806F08056B6F16A
:10467000805F7DD100BF00260096404E366846F42C
:1046800080463E4F3E603E46366806F480460096C1
:1046900000BF00BF3A4E8F0856F827008E07370F2D
:1046A0000F26BE40B043374EB24202D1002624E06E
:1046B0005EE0354EB24201D101261EE0334EB242D9
:1046C00001D1022619E0324EB24201D1032614E094
:1046D000304EB24201D104260FE02F4EB24201D13A
:1046E00005260AE02D4EB24201D1062605E02C4EE9
:1046F000B24201D1072600E008268F073F0FBE40D7
:1047000030431F4E8F0846F82700264E3068A043DE
:104710005E6806F48036B6F5803F00D12043214E16
:104720003060361D3068A0435E6806F40036B6F58A
:10473000003F00D120431B4E361D3060361D3068CF
:10474000A0435E6806F48016B6F5801F00D12043B2
:10475000144E08363060361D3068A0435E6806F49B
:104760000016B6F5001F00D120430E4E0C36306007
:10477000491C1029FFF420AFF8BD00004438024066
:1047800008380140000002400004024000080240D6
:10479000000C0240001002400014024000180240C9
:1047A000001C0240003C01400AB1816101E00B04A1
:1047B00083617047014800687047000028000020AE
:1047C00070B504460CB9012070BD94F83D0028B9BD
:1047D000002084F83C00204600F0CEF8242084F825
:1047E0003D002068006820F001002168086001F0A9
:1047F000AFF905465C496068884206D85B48854247
:1048000001D2012007E0002005E05948854201D28D
:10481000012000E00020012800D1D5E75548B5FB74
:10482000F0F62068406820F03F003043216848607F
:104830004D496068884201D8701C07E04FF49670BB
:1048400070434FF47A71B0FBF1F0401C2168096AA3
:1048500021F03F01084321680862434960688842AB
:1048600014D8681E61684900B0FBF1F0401CC0F329
:104870000B00042801D204203DE0681E6168490055
:10488000B0FBF1F0401CC0F30B0034E0A06838B975
:10489000681E616801EB4101B0FBF1F0401C0AE0C9
:1048A000681E616801EBC10202EB0111B0FBF1F07F
:1048B000401C40F48040C0F30B0008B901201AE00E
:1048C000A06848B9681E616801EB4101B0FBF1F0D6
:1048D000401CC0F30B000CE0681E616801EBC102D4
:1048E00002EB0111B0FBF1F0401CC0F30B0040F4EF
:1048F000804040F400402168C9694CF6FF72914342
:1049000008432168C861D4E90701084321680968A0
:1049100021F0C001084321680860D4E9031008436E
:104920002168896848F2FF32914308432168886012
:10493000D4E9050108432168C96821F0FF01084353
:104940002168C8602068006840F0010021680860A4
:1049500000202064202084F83D000020206384F89B
:104960003E0000BF30E70000A086010080841E00EA
:1049700000093D0040420F0010B586B004461421E6
:1049800001A8FCF760FB2A49206888424DD100BF8E
:10499000002000902748006840F004002549086086
:1049A0000846006800F00400009000BF00BF00BF90
:1049B000002000900846006840F0010008600846AA
:1049C000006800F00100009000BF00BF4815019092
:1049D00012200290012003900320049004200590EF
:1049E00001A91548FFF7E0FD4FF4807001901220F7
:1049F000029001200390032004900420059001A957
:104A00000E48FFF7D1FD00BF00200090094810308C
:104A1000006840F40000074910310860084600684B
:104A200000F40000009000BF00BF06B010BD000001
:104A3000005C0040303802400008024000000240A4
:104A40000348006803490978084401490860704731
:104A5000280000203000002010B50D48006840F408
:104A600000700B4908600846006840F480600860E8
:104A70000846006840F480700860032000F0A8F841
:104A80000F2000F007F800F02BF8002010BD000008
:104A9000003C024070B504460E4800784FF47A712D
:104AA000B1FBF0F00C490968B1FBF0F5284601F0C4
:104AB000F2FC08B1012070BD102C07D20022214663
:104AC000501E00F047F80548046001E00120F2E7BD
:104AD0000020F0E730000020340000202C000020EF
:104AE00008B500BF002000901148006840F48040E5
:104AF0000F4908600846006800F48040009000BF3D
:104B000000BF00BF00200090081F006840F08050E8
:104B1000091F08600846006800F08050009000BF40
:104B200000BF00220F21901E00F014F808BD000005
:104B30004438024001460846002809DB00F01F0304
:104B400001229A4043099B0003F1E023C3F80021AE
:104B500000BF70472DE9F05F80460D4616460027DE
:104B600009F054FF074639462A46334601F007004C
:104B7000C0F1070ABAF1040F02D94FF0040A01E0AC
:104B8000C0F1070AD14600F1040ABAF1070F02D2B8
:104B90004FF0000A01E0A0F1030AD4464FF0010AE9
:104BA0000AFA09FAAAF1010A0AEA020A0AFA0CFA4E
:104BB0004FF0010B0BFA0CFBABF1010B0BEA030BF3
:104BC0004AEA0B042146404609F028FFBDE8F09F61
:104BD00000BF00F00702064B19684FF6FF031940AB
:104BE000044B0B4343EA0221014B196000BF70479D
:104BF0000CED00E00000FA057047024610684162C3
:104C000000207047F0B5034615461868446A21B97C
:104C100044EA05401E68B06219E01868806A04EB37
:104C20001044002208E0186800F5827050F8220055
:104C300004EB1044501CC2B2481E9042F3D844EA20
:104C40000547186800F582704E1E40F82670002057
:104C5000F0BD10B50446D4F8080508F02EF910BDD3
:104C600070B504460D4605EBC50304F13C0101EBAC
:104C700083010A692946D4F8080508F019F870BDBF
:104C800070B504460D4605EBC50304F51F7101EB35
:104C900083010A692946D4F8080508F08DF870BD2B
:104CA00010B50446D4F8080508F00AF910BD2DE93E
:104CB000F04104460D4605F08000802808D105F03B
:104CC0000F0000EBC00104F13C0000EB810607E09F
:104CD00005F00F0000EBC00104F51F7000EB81062A
:104CE0003146206809F0DEFB07463846BDE8F08112
:104CF00070B504460E4606F0800080280AD106F002
:104D00000F0000EBC00104F13C0000EB8105012025
:104D1000687009E006F00F0000EBC00104F51F7099
:104D200000EB81050020687006F00F00287000BFBE
:104D300094F8BC04012801D1022070BD012084F840
:104D4000BC0400BF2946206808F08CFE00BF00208C
:104D500084F8BC0400BF00BFEFE770B504460E4600
:104D600006F00F006168884201D9012070BD06F08D
:104D7000800080280AD106F00F0000EBC00104F18A
:104D80003C0000EB81050120687009E006F00F008F
:104D900000EBC00104F51F7000EB81050020687076
:104DA0000020A87006F00F00287000BF94F8BC0423
:104DB000012801D10220D9E7012084F8BC0400BFFA
:104DC0002946206809F036F900BF002084F8BC04A9
:104DD00000BF00BFCAE7024601F00F0000EBC003AE
:104DE00002F51F7000EB8300006A70472DE9F04761
:104DF00005460E4690461F464FF0000906F080001B
:104E000080280AD106F00F0000EBC00105F13C003C
:104E100000EB81040120607009E006F00F0000EB58
:104E2000C00105F51F7000EB81040020607006F0E2
:104E30000F002070C4F80C802771607808B12078CA
:104E40002081022F01D10020607100BF95F8BC04C1
:104E5000012802D10220BDE8F087012085F8BC04BA
:104E600000BF2146286808F013FD00BF002085F828
:104E7000BC0400BF4846EEE72DE9F04104460E466B
:104E80001746984606F00F0000EBC00104F51F70AE
:104E900000EB81052F61C5F818800020286268703A
:104EA00006F00F0028702069012800D16F6106F01C
:104EB0000F0028B9227C2946206808F095FF04E0FD
:104EC000227C2946206809F049F90020BDE8F081DC
:104ED00070B504460D4605F00F006168884201D99F
:104EE000012070BD05F0800080280AD105F00F0078
:104EF00000EBC00104F13C0000EB81060120707062
:104F000007E005EBC50104F51F7000EB81060020EA
:104F100070700120B07005F00F00307000BF94F881
:104F2000BC04012801D10220DBE7012084F8BC0485
:104F300000BF3146206809F0C4F805F00F0028B919
:104F4000217C04F2C442206809F03CF800BF002034
:104F500084F8BC0400BF00BFC3E72DE9F04104465C
:104F60000E461746984606F00F0000EBC00104F10C
:104F70003C0000EB81052F61C5F8188000202862F5
:104F80000120687006F00F0028702069012800D108
:104F90006F6106F00F0028B9227C2946206808F0CE
:104FA00023FF04E0227C2946206809F0D7F800207E
:104FB000BDE8F0812DE9FE4F0446D4F800B05E460E
:104FC000206809F056FB002874D1206809F090FB96
:104FD00008B9BDE8FE8F40F608008059C0F30D20E7
:104FE000C4F8FC04206809F083FB00F002000228EA
:104FF00005D12068406900F00200216848612068FE
:1050000009F076FB00F01000102845D12068806977
:1050100020F0100021688861DBF8209009F00F0073
:1050200000EBC00104F51F7000EB810AC9F3434097
:1050300002281AD147F6F07009EA000030B3C9F32C
:105040000A125846DAF8101009F057FBC9F30A1192
:10505000DAF810000844CAF81000C9F30A11DAF8A7
:1050600020000844CAF8200010E0C9F34340062895
:105070000CD1082204F2C441584609F03EFBC9F3A2
:105080000A11DAF820000844CAF820002068806974
:1050900040F0100021688861206809F029FB00F4C5
:1050A0000020B0F5002F7BD10025206809F0F0FA30
:1050B000029072E0E1E2029800F00100002868D05E
:1050C000E9B2206809F007FB804608F0010048B10A
:1050D000012106F5306000EB45108160294620462D
:1050E00005F054F908F00800082809D1082106F550
:1050F000306000EB451081602946204605F014F928
:1051000008F01000102805D1102106F5306000EBE2
:105110004510816008F00200022824D1DBF8140059
:1051200000F08000802807D140F60400805940F448
:10513000806140F60400815105EBC50104F51F7044
:1051400000EB810A9AF80300012806D100208AF8B2
:105150000300E9B2204600F09BFA022106F5306018
:1051600000EB4510816008F02000202805D12021A7
:1051700006F5306000EB4510816008F40050B0F592
:10518000005F06D14FF4005106F5306000EB45108A
:1051900081606D1C029840080290029800288AD114
:1051A000206809F0A5FA00F48020B0F5802F7DD1A9
:1051B000206809F063FA029000259AE0029800F056
:1051C0000100002873D0E9B2206809F06BFA80462C
:1051D00008F00100F0B305F00F01012088400190B4
:1051E00040F634008159019821EA000040F634016C
:1051F0008851012106F5106000EB4510816020699F
:10520000012824D105EBC50104F13C0000EB81002D
:1052100005EBC502016904F13C0000EB8200C068A7
:10522000014405EBC50204F13C0000EB8200016182
:105230006DB905EBC50104F13C0000EB810080690C
:1052400028B904F2C4420121206808F0BBFEE9B28B
:10525000204600E001E0FFF703FD08F00800082801
:1052600005D1082106F5106000EB4510816008F0BB
:105270001000102805D1102106F5106000EB451034
:10528000816008F04000402805D1402106F51060FB
:1052900000EB4510816008F0020002281DD129466C
:1052A000584609F0A7F905EBC50101E025E01CE02F
:1052B00004F13C0000EB810A9AF80300012806D1B2
:1052C00000208AF80300E9B2204600F0D8F9022154
:1052D00006F5106000EB4510816008F08000802822
:1052E00003D12946204605F0F3F86D1C02984008CA
:1052F0000290029800287FF461AF206809F0F8F965
:1053000000F00040B0F1004F1CD140F6040080597D
:1053100020F0010140F60400815194F8F4040128C2
:1053200007D1002084F8F40400212046FFF764FC34
:1053300002E0204600F0D4FA2068406900F0004006
:1053400021684861206809F0D3F900F40060B0F5E5
:10535000006F0ED140F60800805900F0010010B136
:10536000204600F015FB2068406900F400602168C9
:105370004861206809F0BCF900F48050B0F5805F06
:105380007ED140F60400805920F0010140F604006F
:1053900081511021206809F02DF9002732E04FF6E5
:1053A0007F3106F5106000EB4710816006F5106054
:1053B00000EB4710006820F4001106F5106000EBC8
:1053C000471001604FF67F3106F5306000EB471063
:1053D000816006F5306000EB4710006820F4001192
:1053E00006F5306000EB4710016006F5306000EB19
:1053F0004710006840F0006106F5306000EB471090
:1054000001607F1C6068B842C9D840F61C00805912
:1054100040F0011140F61C008151206B70B1D6F8AC
:10542000840840F00B01C6F8841840F64400805907
:1054300040F00B0140F6440081510FE040F61400AB
:10544000805942F22B01084340F614018851081F8D
:10545000805940F00B014FF401608151D6F80008EB
:1054600020F4FE60C6F80008217C04F2C4422068E3
:1054700008F0A8FD2068406900F48050216800E031
:1054800000E04861206809F033F900F40050B0F5FD
:10549000005F17D1206808F063FA206809F0D6F899
:1054A000E06000F04FFB0090227B2068009909F03B
:1054B000A7F9204600F0FCF92068406900F400508C
:1054C00021684861206809F013F900F008000828F5
:1054D00008D1204600F00BFA2068406900F008006F
:1054E00021684861206809F003F900F080008028F5
:1054F00018D1DBF8180020F08000CBF81800012547
:105500000DE005EBC50104F51F7000EB8100C078CC
:10551000012803D1E9B22046FFF7C9FB6D1C606882
:10552000A842EED8206809F0E3F800F48010B0F546
:10553000801F2DD1012522E006F5106000EB4510FB
:10554000D0F8009005EBC50104F13C0000EB8100B0
:105550000079012812D109F00040B0F1004F0DD1BF
:10556000012105EBC50204F13C0000EB8200C17093
:10557000E8B240F080012046FFF799FB6D1C60689F
:10558000A842D9D82068406900F480102168486199
:10559000206809F0ADF800F40010B0F5001F44D108
:1055A000012538E006F5306000EB4510D0F800909A
:1055B00005EBC50104F51F7000EB8100007901289F
:1055C00028D109F00040B0F1004F23D109F4803018
:1055D00094F8FC1401F0010188421BD1012105EB74
:1055E000C50204F51F7000EB8200C170DBF81800E3
:1055F00040F08000CBF81800DBF8140000F08000C9
:1056000040B940F60400805940F4007140F60400AF
:10561000815103E06D1C6068A842C3D800BF2068B8
:10562000406900F4001021684861206809F060F8C2
:1056300000F08040B0F1804F08D12046FFF709FB11
:105640002068406900F0804021684861206809F0C6
:105650004FF800F0040004280FD12068D0F804901F
:1056600009F00400042802D12046FFF719FB206846
:10567000406840EA09002168486000BFA9E470B5AD
:1056800004460D462946D4F8080507F085FC70BD90
:1056900070B504460D462946D4F8080507F0A0FC6D
:1056A00070BD70B58AB0044614B901200AB070BD4F
:1056B000266894F8BD0428B9002084F8BC0420466C
:1056C00000F0A2F8032084F8BD04F06B00F48070B1
:1056D00008B900212161206808F07EFB282204F12E
:1056E00010016846FBF753FC94E80F0008F04CF9F2
:1056F00020B1022084F8BD040120D7E700212068F2
:1057000009F02BF8002531E0012105EBC50204F179
:105710003C0000EB8200417005EBC50104F13C0048
:1057200000F8215005EBC50100EB81000581002147
:1057300005EBC50204F13C0000EB8200017105EBB2
:10574000C50204F13C0000EB8200C16005EBC5021C
:1057500004F13C0000EB8200016105EBC50204F19D
:105760003C0000EB82008161681CC5B26068A84201
:10577000CAD800252AE0002105EBC50204F51F70F8
:1057800000EB8200417005EBC50104F51F7000F8C5
:105790002150002105EBC50200EB8200017105EBF1
:1057A000C50204F51F7000EB8200C16005EBC50265
:1057B00004F51F7000EB8200016105EBC50204F5E2
:1057C0001F7000EB82008161681CC5B26068A8424E
:1057D000D1D8282204F110016846FBF7D8FB94E8E1
:1057E0000F0008F009FA20B1022084F8BD0401205E
:1057F0005CE7002084F83800012084F8BD042068AC
:1058000008F0E8F9002051E710B586B004461421ED
:1058100001A8FBF718FC2068B0F1A04F42D100BFEF
:10582000002000902048006840F001001E490860F8
:105830000846006800F00100009000BF00BF4FF470
:10584000C050019002200290002003900320049099
:105850000A20059001A91548FEF7A6FE00BF1248D0
:10586000001D006840F080000F49091D086000BF5E
:10587000002000900C481430006840F480400A4931
:10588000143108600846006800F48040009000BFB2
:1058900000BF00BF002211464320FFF75BF9432001
:1058A000FFF748F906B010BD303802400000024052
:1058B00070B504460125E06808B9002506E0E068F7
:1058C000022801D1012501E0FDF756FB2946D4F855
:1058D000080507F02EFCD4F8080507F0D5FB70BDCD
:1058E00010B50446D4F8080507F004FC10BD10B547
:1058F0000446D4F8080507F008FC10BD70B504464E
:105900000D4600BF94F8BC04012801D1022070BDEF
:10591000012084F8BC0400BF84F838502946206870
:1059200008F04FFF00BF002084F8BC0400BF00BF98
:10593000EDE710B5044604F2C441D4F8080507F0B9
:105940000FFC10BD70B50446256800BF94F8BC0478
:10595000012801D1022070BD012084F8BC0400BFE1
:10596000A06A012806D1A069012803D0A86B40F4E1
:105970008030A863206808F00BFE206808F018F952
:1059800000BF002084F8BC0400BF00BFE3E70000B4
:1059900010B50446D4F8080507F03FFC2068D0F89D
:1059A000000E40F001002168C1F8000E206A28B105
:1059B0000348006840F006000149086010BD00007F
:1059C00010ED00E070B504460D460CB9012070BD25
:1059D0005848006800F00F00A84209D255490D70E0
:1059E0000846006800F00F00A84201D00120EEE751
:1059F000207800F0020002281DD1207800F0040079
:105A0000042805D14C48006840F4E0504A49086039
:105A1000207800F00800082805D14748006840F4C5
:105A20006040454908604448006820F0F000A168E3
:105A3000084341490860207800F00100A8B360687D
:105A4000012807D13C4808380068C0F34040B8B985
:105A50000120BCE76068022802D06068032807D1F3
:105A6000354808380068C0F3406048B90120AEE707
:105A7000314808380068C0F3400008B90120A6E7A3
:105A80002D48006820F00300616808432A49086037
:105A9000FEF790FE064609E0FEF78CFE801B41F201
:105AA0008831884202D9032091E707E02248006844
:105AB00000F00C006168B0EB810FEDD11D4800686B
:105AC00000F00F00A84209D91A490D700846006875
:105AD00000F00F00A84201D0012078E7207800F004
